{
  "contractName": "AccountInfo",
  "abi": [
    {
      "inputs": [
        {
          "internalType": "address",
          "name": "_address",
          "type": "address"
        }
      ],
      "name": "getBalance",
      "outputs": [
        {
          "internalType": "uint256",
          "name": "",
          "type": "uint256"
        }
      ],
      "stateMutability": "view",
      "type": "function",
      "constant": true
    },
    {
      "inputs": [],
      "name": "getAddress",
      "outputs": [
        {
          "internalType": "address",
          "name": "",
          "type": "address"
        }
      ],
      "stateMutability": "view",
      "type": "function",
      "constant": true
    }
  ],
  "bytecode": "0x608060405234801561001057600080fd5b506101cd806100206000396000f3fe608060405234801561001057600080fd5b50600436106100365760003560e01c806338cc48311461003b578063f8b2cb4f14610059575b600080fd5b610043610089565b604051610050919061010e565b60405180910390f35b610073600480360381019061006e91906100c7565b610091565b6040516100809190610129565b60405180910390f35b600030905090565b60008173ffffffffffffffffffffffffffffffffffffffff16319050919050565b6000813590506100c181610180565b92915050565b6000602082840312156100d957600080fd5b60006100e7848285016100b2565b91505092915050565b6100f981610144565b82525050565b61010881610176565b82525050565b600060208201905061012360008301846100f0565b92915050565b600060208201905061013e60008301846100ff565b92915050565b600061014f82610156565b9050919050565b600073ffffffffffffffffffffffffffffffffffffffff82169050919050565b6000819050919050565b61018981610144565b811461019457600080fd5b5056fea26469706673582212206d7aa6ecd578cd844e52d061c09049db31457b84ef00d34d2d7b4c855f51551764736f6c63430008000033",
  "immutableReferences": {},
  "source": "// SPDX-License-Identifier: MIT\npragma solidity ^0.8.0;\n\ncontract AccountInfo {\n \n  // Function to get the balance of an address\n    function getBalance(address _address) public view returns (uint256) {\n        return _address.balance;\n    }\n\n    // Function to get the address of the contract\n    function getAddress() public view returns (address) {\n        return address(this);\n    }\n\n}\n",
  "sourcePath": "/Volumes/redcap/study/blockchain/assignment/project/prototype/identity-management/contracts/AccountInfo.sol",
  "compiler": {
    "name": "solc",
    "version": "0.8.0+commit.c7dfd78e.Emscripten.clang"
  },
  "schemaVersion": "3.4.16",
  "updatedAt": "2023-10-07T14:12:24.044Z",
  "networkType": "ethereum",
  "devdoc": {
    "kind": "dev",
    "methods": {},
    "version": 1
  },
  "userdoc": {
    "kind": "user",
    "methods": {},
    "version": 1
  }
}