{
  "contractName": "DIDRegistry",
  "abi": [
    {
      "anonymous": false,
      "inputs": [
        {
          "components": [
            {
              "internalType": "string",
              "name": "did",
              "type": "string"
            },
            {
              "internalType": "string",
              "name": "didType",
              "type": "string"
            },
            {
              "internalType": "string",
              "name": "title",
              "type": "string"
            },
            {
              "internalType": "string",
              "name": "signature",
              "type": "string"
            },
            {
              "internalType": "address",
              "name": "user",
              "type": "address"
            }
          ],
          "indexed": false,
          "internalType": "struct DIDRegistry.DIDDocument",
          "name": "didDoc",
          "type": "tuple"
        }
      ],
      "name": "DidAdded",
      "type": "event"
    },
    {
      "inputs": [
        {
          "internalType": "address",
          "name": "",
          "type": "address"
        },
        {
          "internalType": "uint256",
          "name": "",
          "type": "uint256"
        }
      ],
      "name": "didDocuments",
      "outputs": [
        {
          "internalType": "string",
          "name": "did",
          "type": "string"
        },
        {
          "internalType": "string",
          "name": "didType",
          "type": "string"
        },
        {
          "internalType": "string",
          "name": "title",
          "type": "string"
        },
        {
          "internalType": "string",
          "name": "signature",
          "type": "string"
        },
        {
          "internalType": "address",
          "name": "user",
          "type": "address"
        }
      ],
      "stateMutability": "view",
      "type": "function",
      "constant": true
    },
    {
      "inputs": [
        {
          "internalType": "string",
          "name": "did",
          "type": "string"
        },
        {
          "internalType": "string",
          "name": "didType",
          "type": "string"
        },
        {
          "internalType": "string",
          "name": "title",
          "type": "string"
        },
        {
          "internalType": "address",
          "name": "userAddress",
          "type": "address"
        },
        {
          "internalType": "string",
          "name": "signature",
          "type": "string"
        }
      ],
      "name": "addDIDDocument",
      "outputs": [],
      "stateMutability": "nonpayable",
      "type": "function"
    },
    {
      "inputs": [
        {
          "internalType": "address",
          "name": "userAddress",
          "type": "address"
        }
      ],
      "name": "getDIDDocuments",
      "outputs": [
        {
          "internalType": "string[]",
          "name": "",
          "type": "string[]"
        }
      ],
      "stateMutability": "view",
      "type": "function",
      "constant": true
    }
  ],
  "bytecode": "0x608060405234801561001057600080fd5b50611891806100206000396000f3fe608060405234801561001057600080fd5b50600436106100415760003560e01c806312692076146100465780632e36ba7a14610062578063ff01b41114610092575b600080fd5b610060600480360381019061005b9190610fa8565b6100c6565b005b61007c60048036038101906100779190610f43565b61026b565b6040516100899190611461565b60405180910390f35b6100ac60048036038101906100a79190610f6c565b61071a565b6040516100bd959493929190611483565b60405180910390f35b60006040518060a001604052808781526020018681526020018581526020018381526020018473ffffffffffffffffffffffffffffffffffffffff1681525090506000808473ffffffffffffffffffffffffffffffffffffffff1673ffffffffffffffffffffffffffffffffffffffff168152602001908152602001600020819080600181540180825580915050600190039060005260206000209060050201600090919091909150600082015181600001908051906020019061018b929190610e0e565b5060208201518160010190805190602001906101a8929190610e0e565b5060408201518160020190805190602001906101c5929190610e0e565b5060608201518160030190805190602001906101e2929190610e0e565b5060808201518160040160006101000a81548173ffffffffffffffffffffffffffffffffffffffff021916908373ffffffffffffffffffffffffffffffffffffffff16021790555050507fcd039a381b4d43b9a7a5d0cf0f06e98975a22a0c1417a26997a32c44269f55c38160405161025b91906114f2565b60405180910390a1505050505050565b606060008060008473ffffffffffffffffffffffffffffffffffffffff1673ffffffffffffffffffffffffffffffffffffffff168152602001908152602001600020805480602002602001604051908101604052809291908181526020016000905b8282101561059d57838290600052602060002090600502016040518060a001604052908160008201805461030090611714565b80601f016020809104026020016040519081016040528092919081815260200182805461032c90611714565b80156103795780601f1061034e57610100808354040283529160200191610379565b820191906000526020600020905b81548152906001019060200180831161035c57829003601f168201915b5050505050815260200160018201805461039290611714565b80601f01602080910402602001604051908101604052809291908181526020018280546103be90611714565b801561040b5780601f106103e05761010080835404028352916020019161040b565b820191906000526020600020905b8154815290600101906020018083116103ee57829003601f168201915b5050505050815260200160028201805461042490611714565b80601f016020809104026020016040519081016040528092919081815260200182805461045090611714565b801561049d5780601f106104725761010080835404028352916020019161049d565b820191906000526020600020905b81548152906001019060200180831161048057829003601f168201915b505050505081526020016003820180546104b690611714565b80601f01602080910402602001604051908101604052809291908181526020018280546104e290611714565b801561052f5780601f106105045761010080835404028352916020019161052f565b820191906000526020600020905b81548152906001019060200180831161051257829003601f168201915b505050505081526020016004820160009054906101000a900473ffffffffffffffffffffffffffffffffffffffff1673ffffffffffffffffffffffffffffffffffffffff1673ffffffffffffffffffffffffffffffffffffffff1681525050815260200190600101906102cd565b5050505090506000815167ffffffffffffffff8111156105e6577f4e487b7100000000000000000000000000000000000000000000000000000000600052604160045260246000fd5b60405190808252806020026020018201604052801561061957816020015b60608152602001906001900390816106045790505b50905060005b825181101561070f576000838281518110610663577f4e487b7100000000000000000000000000000000000000000000000000000000600052603260045260246000fd5b602002602001015190506000816000015182602001518360400151846060015161069086608001516109ad565b6040516020016106a49594939291906113d4565b6040516020818303038152906040529050808484815181106106ef577f4e487b7100000000000000000000000000000000000000000000000000000000600052603260045260246000fd5b60200260200101819052505050808061070790611746565b91505061061f565b508092505050919050565b6000602052816000526040600020818154811061073657600080fd5b90600052602060002090600502016000915091505080600001805461075a90611714565b80601f016020809104026020016040519081016040528092919081815260200182805461078690611714565b80156107d35780601f106107a8576101008083540402835291602001916107d3565b820191906000526020600020905b8154815290600101906020018083116107b657829003601f168201915b5050505050908060010180546107e890611714565b80601f016020809104026020016040519081016040528092919081815260200182805461081490611714565b80156108615780601f1061083657610100808354040283529160200191610861565b820191906000526020600020905b81548152906001019060200180831161084457829003601f168201915b50505050509080600201805461087690611714565b80601f01602080910402602001604051908101604052809291908181526020018280546108a290611714565b80156108ef5780601f106108c4576101008083540402835291602001916108ef565b820191906000526020600020905b8154815290600101906020018083116108d257829003601f168201915b50505050509080600301805461090490611714565b80601f016020809104026020016040519081016040528092919081815260200182805461093090611714565b801561097d5780601f106109525761010080835404028352916020019161097d565b820191906000526020600020905b81548152906001019060200180831161096057829003601f168201915b5050505050908060040160009054906101000a900473ffffffffffffffffffffffffffffffffffffffff16905085565b606060008273ffffffffffffffffffffffffffffffffffffffff1660001b905060006040518060400160405280601081526020017f303132333435363738396162636465660000000000000000000000000000000081525090506000602a67ffffffffffffffff811115610a4a577f4e487b7100000000000000000000000000000000000000000000000000000000600052604160045260246000fd5b6040519080825280601f01601f191660200182016040528015610a7c5781602001600182028036833780820191505090505b5090507f300000000000000000000000000000000000000000000000000000000000000081600081518110610ada577f4e487b7100000000000000000000000000000000000000000000000000000000600052603260045260246000fd5b60200101907effffffffffffffffffffffffffffffffffffffffffffffffffffffffffffff1916908160001a9053507f780000000000000000000000000000000000000000000000000000000000000081600181518110610b64577f4e487b7100000000000000000000000000000000000000000000000000000000600052603260045260246000fd5b60200101907effffffffffffffffffffffffffffffffffffffffffffffffffffffffffffff1916908160001a90535060005b6014811015610e025782600485600c84610bb091906115e6565b60208110610be7577f4e487b7100000000000000000000000000000000000000000000000000000000600052603260045260246000fd5b1a60f81b7effffffffffffffffffffffffffffffffffffffffffffffffffffffffffffff1916901c60f81c60ff1681518110610c4c577f4e487b7100000000000000000000000000000000000000000000000000000000600052603260045260246000fd5b602001015160f81c60f81b82600283610c65919061163c565b6002610c7191906115e6565b81518110610ca8577f4e487b7100000000000000000000000000000000000000000000000000000000600052603260045260246000fd5b60200101907effffffffffffffffffffffffffffffffffffffffffffffffffffffffffffff1916908160001a90535082600f60f81b85600c84610ceb91906115e6565b60208110610d22577f4e487b7100000000000000000000000000000000000000000000000000000000600052603260045260246000fd5b1a60f81b1660f81c60ff1681518110610d64577f4e487b7100000000000000000000000000000000000000000000000000000000600052603260045260246000fd5b602001015160f81c60f81b82600283610d7d919061163c565b6003610d8991906115e6565b81518110610dc0577f4e487b7100000000000000000000000000000000000000000000000000000000600052603260045260246000fd5b60200101907effffffffffffffffffffffffffffffffffffffffffffffffffffffffffffff1916908160001a9053508080610dfa90611746565b915050610b96565b50809350505050919050565b828054610e1a90611714565b90600052602060002090601f016020900481019282610e3c5760008555610e83565b82601f10610e5557805160ff1916838001178555610e83565b82800160010185558215610e83579182015b82811115610e82578251825591602001919060010190610e67565b5b509050610e909190610e94565b5090565b5b80821115610ead576000816000905550600101610e95565b5090565b6000610ec4610ebf84611545565b611514565b905082815260208101848484011115610edc57600080fd5b610ee78482856116d2565b509392505050565b600081359050610efe8161182d565b92915050565b600082601f830112610f1557600080fd5b8135610f25848260208601610eb1565b91505092915050565b600081359050610f3d81611844565b92915050565b600060208284031215610f5557600080fd5b6000610f6384828501610eef565b91505092915050565b60008060408385031215610f7f57600080fd5b6000610f8d85828601610eef565b9250506020610f9e85828601610f2e565b9150509250929050565b600080600080600060a08688031215610fc057600080fd5b600086013567ffffffffffffffff811115610fda57600080fd5b610fe688828901610f04565b955050602086013567ffffffffffffffff81111561100357600080fd5b61100f88828901610f04565b945050604086013567ffffffffffffffff81111561102c57600080fd5b61103888828901610f04565b935050606061104988828901610eef565b925050608086013567ffffffffffffffff81111561106657600080fd5b61107288828901610f04565b9150509295509295909350565b600061108b8383611126565b905092915050565b61109c81611696565b82525050565b6110ab81611696565b82525050565b60006110bc82611585565b6110c681856115a8565b9350836020820285016110d885611575565b8060005b8581101561111457848403895281516110f5858261107f565b94506111008361159b565b925060208a019950506001810190506110dc565b50829750879550505050505092915050565b600061113182611590565b61113b81856115b9565b935061114b8185602086016116e1565b6111548161181c565b840191505092915050565b600061116a82611590565b61117481856115ca565b93506111848185602086016116e1565b61118d8161181c565b840191505092915050565b60006111a382611590565b6111ad81856115db565b93506111bd8185602086016116e1565b80840191505092915050565b60006111d66008836115db565b91507f7b22646964223a220000000000000000000000000000000000000000000000006000830152600882019050919050565b60006112166002836115db565b91507f227d0000000000000000000000000000000000000000000000000000000000006000830152600282019050919050565b6000611256600d836115db565b91507f222c2264696454797065223a22000000000000000000000000000000000000006000830152600d82019050919050565b6000611296600a836115db565b91507f222c2275736572223a22000000000000000000000000000000000000000000006000830152600a82019050919050565b60006112d6600b836115db565b91507f222c227469746c65223a220000000000000000000000000000000000000000006000830152600b82019050919050565b6000611316600f836115db565b91507f222c227369676e6174757265223a2200000000000000000000000000000000006000830152600f82019050919050565b600060a08301600083015184820360008601526113668282611126565b915050602083015184820360208601526113808282611126565b9150506040830151848203604086015261139a8282611126565b915050606083015184820360608601526113b48282611126565b91505060808301516113c96080860182611093565b508091505092915050565b60006113df826111c9565b91506113eb8288611198565b91506113f682611249565b91506114028287611198565b915061140d826112c9565b91506114198286611198565b915061142482611309565b91506114308285611198565b915061143b82611289565b91506114478284611198565b915061145282611209565b91508190509695505050505050565b6000602082019050818103600083015261147b81846110b1565b905092915050565b600060a082019050818103600083015261149d818861115f565b905081810360208301526114b1818761115f565b905081810360408301526114c5818661115f565b905081810360608301526114d9818561115f565b90506114e860808301846110a2565b9695505050505050565b6000602082019050818103600083015261150c8184611349565b905092915050565b6000604051905081810181811067ffffffffffffffff8211171561153b5761153a6117ed565b5b8060405250919050565b600067ffffffffffffffff8211156115605761155f6117ed565b5b601f19601f8301169050602081019050919050565b6000819050602082019050919050565b600081519050919050565b600081519050919050565b6000602082019050919050565b600082825260208201905092915050565b600082825260208201905092915050565b600082825260208201905092915050565b600081905092915050565b60006115f1826116c8565b91506115fc836116c8565b9250827fffffffffffffffffffffffffffffffffffffffffffffffffffffffffffffffff038211156116315761163061178f565b5b828201905092915050565b6000611647826116c8565b9150611652836116c8565b9250817fffffffffffffffffffffffffffffffffffffffffffffffffffffffffffffffff048311821515161561168b5761168a61178f565b5b828202905092915050565b60006116a1826116a8565b9050919050565b600073ffffffffffffffffffffffffffffffffffffffff82169050919050565b6000819050919050565b82818337600083830152505050565b60005b838110156116ff5780820151818401526020810190506116e4565b8381111561170e576000848401525b50505050565b6000600282049050600182168061172c57607f821691505b602082108114156117405761173f6117be565b5b50919050565b6000611751826116c8565b91507fffffffffffffffffffffffffffffffffffffffffffffffffffffffffffffffff8214156117845761178361178f565b5b600182019050919050565b7f4e487b7100000000000000000000000000000000000000000000000000000000600052601160045260246000fd5b7f4e487b7100000000000000000000000000000000000000000000000000000000600052602260045260246000fd5b7f4e487b7100000000000000000000000000000000000000000000000000000000600052604160045260246000fd5b6000601f19601f8301169050919050565b61183681611696565b811461184157600080fd5b50565b61184d816116c8565b811461185857600080fd5b5056fea26469706673582212203e896fded4676922dad7ff2482a061698d2c95177ce6f5f989f8b39bb873c4f064736f6c63430008000033",
  "immutableReferences": {},
  "source": "// SPDX-License-Identifier: MIT\npragma solidity ^0.8.0;\n\ncontract DIDRegistry {\n    // Struct to represent a DID document\n    struct DIDDocument {\n        string did; // DID ID in the format \"did:<method>:<unique_id>\"\n        string didType; // Type of DID ID\n        string title;\n        string signature; // sign didId\n        address user; // Ethereum address of the user\n    }\n\n    // Mapping to store DID documents for each user's Ethereum address\n    mapping(address => DIDDocument[]) public didDocuments;\n\n    event DidAdded(DIDDocument didDoc);\n\n    // Function to add a new DID document\n    function addDIDDocument(\n        string memory did,\n        string memory didType,\n        string memory title,\n        address userAddress,\n        string memory signature\n    ) public {\n        DIDDocument memory doc = DIDDocument(did, didType, title, signature, userAddress);\n        // console.log(\"Owner contract deployed by:\", msg.sender);\n        didDocuments[userAddress].push(doc);\n\n        emit DidAdded(doc);\n    }\n\n    // Function to retrieve all DID documents for a user\n    function getDIDDocuments(address userAddress) public view returns (string[] memory) {\n        DIDDocument[] memory didDocs = didDocuments[userAddress];\n        string[] memory jsonObjects = new string[](didDocs.length);\n\n        for (uint256 i = 0; i < didDocs.length; i++) {\n            DIDDocument memory doc = didDocs[i];\n            string memory jsonObject = string(\n                abi.encodePacked(\n                    '{\"did\":\"',\n                    doc.did,\n                    '\",\"didType\":\"',\n                    doc.didType,\n                    '\",\"title\":\"',\n                    doc.title,\n                    '\",\"signature\":\"',\n                    doc.signature,\n                    '\",\"user\":\"',\n                    addressToString(doc.user),\n                    '\"}'\n                )\n            );\n            jsonObjects[i] = jsonObject;\n        }\n\n        return jsonObjects;\n    }\n\n    // Helper function to convert an address to a string\n    function addressToString(address _address) internal pure returns (string memory) {\n        bytes32 _bytes = bytes32(uint256(uint160(_address)));\n        bytes memory HEX = \"0123456789abcdef\";\n        bytes memory _string = new bytes(42);\n        _string[0] = \"0\";\n        _string[1] = \"x\";\n        for (uint256 i = 0; i < 20; i++) {\n            _string[2 + i * 2] = HEX[uint8(_bytes[i + 12] >> 4)];\n            _string[3 + i * 2] = HEX[uint8(_bytes[i + 12] & 0x0f)];\n        }\n        return string(_string);\n    }\n}",
  "sourcePath": "/Volumes/redcap/study/blockchain/assignment/project/prototype/identity-management/contracts/DIDRegistry.sol",
  "compiler": {
    "name": "solc",
    "version": "0.8.0+commit.c7dfd78e.Emscripten.clang"
  },
  "schemaVersion": "3.4.16",
  "updatedAt": "2023-10-08T02:23:19.273Z",
  "networkType": "ethereum",
  "devdoc": {
    "kind": "dev",
    "methods": {},
    "version": 1
  },
  "userdoc": {
    "kind": "user",
    "methods": {},
    "version": 1
  }
}