{
  "contractName": "DigitalSignature",
  "abi": [
    {
      "inputs": [
        {
          "internalType": "address",
          "name": "_addr",
          "type": "address"
        },
        {
          "internalType": "string",
          "name": "_data",
          "type": "string"
        }
      ],
      "name": "getMessageHash",
      "outputs": [
        {
          "internalType": "bytes32",
          "name": "",
          "type": "bytes32"
        }
      ],
      "stateMutability": "pure",
      "type": "function",
      "constant": true
    },
    {
      "inputs": [
        {
          "internalType": "address",
          "name": "_addr",
          "type": "address"
        },
        {
          "internalType": "uint256",
          "name": "_tokenId",
          "type": "uint256"
        }
      ],
      "name": "getMessageHashFromTokenId",
      "outputs": [
        {
          "internalType": "bytes32",
          "name": "",
          "type": "bytes32"
        }
      ],
      "stateMutability": "pure",
      "type": "function",
      "constant": true
    },
    {
      "inputs": [
        {
          "internalType": "bytes32",
          "name": "_messageHash",
          "type": "bytes32"
        }
      ],
      "name": "getEthSignedMessageHash",
      "outputs": [
        {
          "internalType": "bytes32",
          "name": "",
          "type": "bytes32"
        }
      ],
      "stateMutability": "pure",
      "type": "function",
      "constant": true
    },
    {
      "inputs": [
        {
          "internalType": "address",
          "name": "_signer",
          "type": "address"
        },
        {
          "internalType": "bytes32",
          "name": "messageHash",
          "type": "bytes32"
        },
        {
          "internalType": "bytes",
          "name": "signature",
          "type": "bytes"
        }
      ],
      "name": "verify",
      "outputs": [
        {
          "internalType": "bool",
          "name": "",
          "type": "bool"
        }
      ],
      "stateMutability": "pure",
      "type": "function",
      "constant": true
    },
    {
      "inputs": [
        {
          "internalType": "address",
          "name": "_signer",
          "type": "address"
        },
        {
          "internalType": "address",
          "name": "_addr",
          "type": "address"
        },
        {
          "internalType": "string",
          "name": "_tokenId",
          "type": "string"
        },
        {
          "internalType": "bytes",
          "name": "signature",
          "type": "bytes"
        }
      ],
      "name": "verify",
      "outputs": [
        {
          "internalType": "bool",
          "name": "",
          "type": "bool"
        }
      ],
      "stateMutability": "pure",
      "type": "function",
      "constant": true
    },
    {
      "inputs": [
        {
          "internalType": "address",
          "name": "_signer",
          "type": "address"
        },
        {
          "internalType": "address",
          "name": "_addr",
          "type": "address"
        },
        {
          "internalType": "uint256",
          "name": "_tokenId",
          "type": "uint256"
        },
        {
          "internalType": "bytes",
          "name": "signature",
          "type": "bytes"
        }
      ],
      "name": "verify",
      "outputs": [
        {
          "internalType": "bool",
          "name": "",
          "type": "bool"
        }
      ],
      "stateMutability": "pure",
      "type": "function",
      "constant": true
    },
    {
      "inputs": [
        {
          "internalType": "bytes32",
          "name": "_ethSignedMessageHash",
          "type": "bytes32"
        },
        {
          "internalType": "bytes",
          "name": "_signature",
          "type": "bytes"
        }
      ],
      "name": "recoverSigner",
      "outputs": [
        {
          "internalType": "address",
          "name": "",
          "type": "address"
        }
      ],
      "stateMutability": "pure",
      "type": "function",
      "constant": true
    },
    {
      "inputs": [
        {
          "internalType": "bytes",
          "name": "sig",
          "type": "bytes"
        }
      ],
      "name": "splitSignature",
      "outputs": [
        {
          "internalType": "bytes32",
          "name": "r",
          "type": "bytes32"
        },
        {
          "internalType": "bytes32",
          "name": "s",
          "type": "bytes32"
        },
        {
          "internalType": "uint8",
          "name": "v",
          "type": "uint8"
        }
      ],
      "stateMutability": "pure",
      "type": "function",
      "constant": true
    }
  ],
  "bytecode": "0x608060405234801561001057600080fd5b50610d3f806100206000396000f3fe608060405234801561001057600080fd5b50600436106100885760003560e01c806393e9f8fc1161005b57806393e9f8fc1461014d57806397aba7f91461017d578063a7bb5803146101ad578063fa540801146101df57610088565b806302a2393a1461008d5780631a86b550146100bd5780631ba4f866146100ed57806391be0c031461011d575b600080fd5b6100a760048036038101906100a29190610764565b61020f565b6040516100b49190610a40565b60405180910390f35b6100d760048036038101906100d291906106a9565b610242565b6040516100e49190610a25565b60405180910390f35b6101076004803603810190610102919061059b565b610292565b6040516101149190610a25565b60405180910390f35b61013760048036038101906101329190610710565b6102f2565b6040516101449190610a40565b60405180910390f35b6101676004803603810190610162919061062e565b610325565b6040516101749190610a25565b60405180910390f35b610197600480360381019061019291906107c9565b610385565b6040516101a49190610a0a565b60405180910390f35b6101c760048036038101906101c2919061081d565b6103f4565b6040516101d693929190610a5b565b60405180910390f35b6101f960048036038101906101f491906107a0565b61045c565b6040516102069190610a40565b60405180910390f35b600082826040516020016102249291906109b8565b60405160208183030381529060405280519060200120905092915050565b60008061024e8461045c565b90508473ffffffffffffffffffffffffffffffffffffffff166102718285610385565b73ffffffffffffffffffffffffffffffffffffffff16149150509392505050565b60008061029f85856102f2565b905060006102ac8261045c565b90508673ffffffffffffffffffffffffffffffffffffffff166102cf8286610385565b73ffffffffffffffffffffffffffffffffffffffff161492505050949350505050565b60008282604051602001610307929190610990565b60405160208183030381529060405280519060200120905092915050565b600080610332858561020f565b9050600061033f8261045c565b90508673ffffffffffffffffffffffffffffffffffffffff166103628286610385565b73ffffffffffffffffffffffffffffffffffffffff161492505050949350505050565b600080600080610394856103f4565b925092509250600186828585604051600081526020016040526040516103bd9493929190610a92565b6020604051602081039080840390855afa1580156103df573d6000803e3d6000fd5b50505060206040510351935050505092915050565b6000806000604184511461043d576040517f08c379a000000000000000000000000000000000000000000000000000000000815260040161043490610ad7565b60405180910390fd5b6020840151925060408401519150606084015160001a90509193909250565b60008160405160200161046f91906109e4565b604051602081830303815290604052805190602001209050919050565b600061049f61049a84610b28565b610af7565b9050828152602081018484840111156104b757600080fd5b6104c2848285610c0e565b509392505050565b60006104dd6104d884610b58565b610af7565b9050828152602081018484840111156104f557600080fd5b610500848285610c0e565b509392505050565b60008135905061051781610cc4565b92915050565b60008135905061052c81610cdb565b92915050565b600082601f83011261054357600080fd5b813561055384826020860161048c565b91505092915050565b600082601f83011261056d57600080fd5b813561057d8482602086016104ca565b91505092915050565b60008135905061059581610cf2565b92915050565b600080600080608085870312156105b157600080fd5b60006105bf87828801610508565b94505060206105d087828801610508565b935050604085013567ffffffffffffffff8111156105ed57600080fd5b6105f98782880161055c565b925050606085013567ffffffffffffffff81111561061657600080fd5b61062287828801610532565b91505092959194509250565b6000806000806080858703121561064457600080fd5b600061065287828801610508565b945050602061066387828801610508565b935050604061067487828801610586565b925050606085013567ffffffffffffffff81111561069157600080fd5b61069d87828801610532565b91505092959194509250565b6000806000606084860312156106be57600080fd5b60006106cc86828701610508565b93505060206106dd8682870161051d565b925050604084013567ffffffffffffffff8111156106fa57600080fd5b61070686828701610532565b9150509250925092565b6000806040838503121561072357600080fd5b600061073185828601610508565b925050602083013567ffffffffffffffff81111561074e57600080fd5b61075a8582860161055c565b9150509250929050565b6000806040838503121561077757600080fd5b600061078585828601610508565b925050602061079685828601610586565b9150509250929050565b6000602082840312156107b257600080fd5b60006107c08482850161051d565b91505092915050565b600080604083850312156107dc57600080fd5b60006107ea8582860161051d565b925050602083013567ffffffffffffffff81111561080757600080fd5b61081385828601610532565b9150509250929050565b60006020828403121561082f57600080fd5b600082013567ffffffffffffffff81111561084957600080fd5b61085584828501610532565b91505092915050565b61086781610baf565b82525050565b61087e61087982610baf565b610c50565b82525050565b61088d81610bc1565b82525050565b61089c81610bcd565b82525050565b6108b36108ae82610bcd565b610c62565b82525050565b60006108c482610b88565b6108ce8185610ba4565b93506108de818560208601610c1d565b80840191505092915050565b60006108f7601c83610ba4565b91507f19457468657265756d205369676e6564204d6573736167653a0a3332000000006000830152601c82019050919050565b6000610937601883610b93565b91507f696e76616c6964207369676e6174757265206c656e67746800000000000000006000830152602082019050919050565b61097b61097682610bf7565b610c7e565b82525050565b61098a81610c01565b82525050565b600061099c828561086d565b6014820191506109ac82846108b9565b91508190509392505050565b60006109c4828561086d565b6014820191506109d4828461096a565b6020820191508190509392505050565b60006109ef826108ea565b91506109fb82846108a2565b60208201915081905092915050565b6000602082019050610a1f600083018461085e565b92915050565b6000602082019050610a3a6000830184610884565b92915050565b6000602082019050610a556000830184610893565b92915050565b6000606082019050610a706000830186610893565b610a7d6020830185610893565b610a8a6040830184610981565b949350505050565b6000608082019050610aa76000830187610893565b610ab46020830186610981565b610ac16040830185610893565b610ace6060830184610893565b95945050505050565b60006020820190508181036000830152610af08161092a565b9050919050565b6000604051905081810181811067ffffffffffffffff82111715610b1e57610b1d610c88565b5b8060405250919050565b600067ffffffffffffffff821115610b4357610b42610c88565b5b601f19601f8301169050602081019050919050565b600067ffffffffffffffff821115610b7357610b72610c88565b5b601f19601f8301169050602081019050919050565b600081519050919050565b600082825260208201905092915050565b600081905092915050565b6000610bba82610bd7565b9050919050565b60008115159050919050565b6000819050919050565b600073ffffffffffffffffffffffffffffffffffffffff82169050919050565b6000819050919050565b600060ff82169050919050565b82818337600083830152505050565b60005b83811015610c3b578082015181840152602081019050610c20565b83811115610c4a576000848401525b50505050565b6000610c5b82610c6c565b9050919050565b6000819050919050565b6000610c7782610cb7565b9050919050565b6000819050919050565b7f4e487b7100000000000000000000000000000000000000000000000000000000600052604160045260246000fd5b60008160601b9050919050565b610ccd81610baf565b8114610cd857600080fd5b50565b610ce481610bcd565b8114610cef57600080fd5b50565b610cfb81610bf7565b8114610d0657600080fd5b5056fea2646970667358221220238f90c361f0dcf7ff79b4f8a17d0104e3d9239f12450e43c267c44202d39c9864736f6c63430008000033",
  "immutableReferences": {},
  "source": "// SPDX-License-Identifier: MIT\npragma solidity ^0.8.0;\n\ncontract DigitalSignature {\n\n    function getMessageHash(address _addr, string memory _data ) public pure returns (bytes32) {\n        return keccak256(abi.encodePacked(_addr, _data));\n    }\n    \n    function getMessageHashFromTokenId(address _addr, uint256 _tokenId ) public pure returns (bytes32) {\n        return keccak256(abi.encodePacked(_addr, _tokenId));\n    }\n\n    function getEthSignedMessageHash(bytes32 _messageHash) public pure returns (bytes32) {\n        return keccak256( abi.encodePacked(\"\\x19Ethereum Signed Message:\\n32\", _messageHash) );\n    }\n\n    function verify( address _signer, address _addr, uint _tokenId, bytes memory signature ) public pure returns (bool) {\n        bytes32 messageHash = getMessageHashFromTokenId(_addr, _tokenId);\n        bytes32 ethSignedMessageHash = getEthSignedMessageHash(messageHash);\n\n        return recoverSigner(ethSignedMessageHash, signature) == _signer;\n    }\n\n    function verify( address _signer, address _addr, string memory _tokenId, bytes memory signature ) public pure returns (bool) {\n        bytes32 messageHash = getMessageHash(_addr, _tokenId);\n        bytes32 ethSignedMessageHash = getEthSignedMessageHash(messageHash);\n\n        return recoverSigner(ethSignedMessageHash, signature) == _signer;\n    }\n\n    function verify(address _signer, bytes32 messageHash, bytes memory signature) public pure returns (bool) {\n        bytes32 ethSignedMessageHash = getEthSignedMessageHash(messageHash);\n\n        return recoverSigner(ethSignedMessageHash, signature) == _signer;\n\n    }\n\n    function recoverSigner(bytes32 _ethSignedMessageHash, bytes memory _signature)\n        public\n        pure\n        returns (address)\n    {\n        (bytes32 r, bytes32 s, uint8 v) = splitSignature(_signature);\n\n        return ecrecover(_ethSignedMessageHash, v, r, s);\n    }\n\n    function splitSignature(bytes memory sig)\n        public\n        pure\n        returns (\n            bytes32 r,\n            bytes32 s,\n            uint8 v\n        )\n    {\n        // Check the length of the signature, 65 is the standard length for r, s, v signature.\n        require(sig.length == 65, \"invalid signature length\");\n\n        assembly {\n            /*\n            First 32 bytes stores the length of the signature\n\n            add(sig, 32) = pointer of sig + 32\n            effectively, skips first 32 bytes of signature\n\n            mload(p) loads next 32 bytes starting at the memory address p into memory\n            */\n\n            // first 32 bytes, after the length prefix\n            r := mload(add(sig, 0x20))\n            // second 32 bytes\n            s := mload(add(sig, 0x40))\n            // final byte (first byte of the next 32 bytes)\n            v := byte(0, mload(add(sig, 0x60)))\n        }\n\n        // implicitly return (r, s, v)\n    }\n}",
  "sourcePath": "/Volumes/redcap/study/blockchain/assignment/project/prototype/identity-management/contracts/DigitalSignature.sol",
  "compiler": {
    "name": "solc",
    "version": "0.8.0+commit.c7dfd78e.Emscripten.clang"
  },
  "schemaVersion": "3.4.16",
  "updatedAt": "2023-10-30T14:23:05.404Z",
  "networkType": "ethereum",
  "devdoc": {
    "kind": "dev",
    "methods": {},
    "version": 1
  },
  "userdoc": {
    "kind": "user",
    "methods": {},
    "version": 1
  }
}