{
  "contractName": "DigitalSignature",
  "abi": [
    {
      "inputs": [
        {
          "internalType": "address",
          "name": "_addr",
          "type": "address"
        },
        {
          "internalType": "string",
          "name": "_data",
          "type": "string"
        }
      ],
      "name": "getMessageHash",
      "outputs": [
        {
          "internalType": "bytes32",
          "name": "",
          "type": "bytes32"
        }
      ],
      "stateMutability": "pure",
      "type": "function",
      "constant": true
    },
    {
      "inputs": [
        {
          "internalType": "address",
          "name": "_addr",
          "type": "address"
        },
        {
          "internalType": "uint256",
          "name": "_tokenId",
          "type": "uint256"
        }
      ],
      "name": "getMessageHashFromTokenId",
      "outputs": [
        {
          "internalType": "bytes32",
          "name": "",
          "type": "bytes32"
        }
      ],
      "stateMutability": "pure",
      "type": "function",
      "constant": true
    },
    {
      "inputs": [
        {
          "internalType": "bytes32",
          "name": "_messageHash",
          "type": "bytes32"
        }
      ],
      "name": "getEthSignedMessageHash",
      "outputs": [
        {
          "internalType": "bytes32",
          "name": "",
          "type": "bytes32"
        }
      ],
      "stateMutability": "pure",
      "type": "function",
      "constant": true
    },
    {
      "inputs": [
        {
          "internalType": "address",
          "name": "_signer",
          "type": "address"
        },
        {
          "internalType": "address",
          "name": "_addr",
          "type": "address"
        },
        {
          "internalType": "string",
          "name": "_tokenId",
          "type": "string"
        },
        {
          "internalType": "bytes",
          "name": "signature",
          "type": "bytes"
        }
      ],
      "name": "verify",
      "outputs": [
        {
          "internalType": "bool",
          "name": "",
          "type": "bool"
        }
      ],
      "stateMutability": "pure",
      "type": "function",
      "constant": true
    },
    {
      "inputs": [
        {
          "internalType": "address",
          "name": "_signer",
          "type": "address"
        },
        {
          "internalType": "address",
          "name": "_addr",
          "type": "address"
        },
        {
          "internalType": "uint256",
          "name": "_tokenId",
          "type": "uint256"
        },
        {
          "internalType": "bytes",
          "name": "signature",
          "type": "bytes"
        }
      ],
      "name": "verify",
      "outputs": [
        {
          "internalType": "bool",
          "name": "",
          "type": "bool"
        }
      ],
      "stateMutability": "pure",
      "type": "function",
      "constant": true
    },
    {
      "inputs": [
        {
          "internalType": "bytes32",
          "name": "_ethSignedMessageHash",
          "type": "bytes32"
        },
        {
          "internalType": "bytes",
          "name": "_signature",
          "type": "bytes"
        }
      ],
      "name": "recoverSigner",
      "outputs": [
        {
          "internalType": "address",
          "name": "",
          "type": "address"
        }
      ],
      "stateMutability": "pure",
      "type": "function",
      "constant": true
    },
    {
      "inputs": [
        {
          "internalType": "bytes",
          "name": "sig",
          "type": "bytes"
        }
      ],
      "name": "splitSignature",
      "outputs": [
        {
          "internalType": "bytes32",
          "name": "r",
          "type": "bytes32"
        },
        {
          "internalType": "bytes32",
          "name": "s",
          "type": "bytes32"
        },
        {
          "internalType": "uint8",
          "name": "v",
          "type": "uint8"
        }
      ],
      "stateMutability": "pure",
      "type": "function",
      "constant": true
    }
  ],
  "bytecode": "0x608060405234801561001057600080fd5b50610c4d806100206000396000f3fe608060405234801561001057600080fd5b506004361061007d5760003560e01c806393e9f8fc1161005b57806393e9f8fc1461011257806397aba7f914610142578063a7bb580314610172578063fa540801146101a45761007d565b806302a2393a146100825780631ba4f866146100b257806391be0c03146100e2575b600080fd5b61009c60048036038101906100979190610672565b6101d4565b6040516100a9919061094e565b60405180910390f35b6100cc60048036038101906100c79190610510565b610207565b6040516100d99190610933565b60405180910390f35b6100fc60048036038101906100f7919061061e565b610267565b604051610109919061094e565b60405180910390f35b61012c600480360381019061012791906105a3565b61029a565b6040516101399190610933565b60405180910390f35b61015c600480360381019061015791906106d7565b6102fa565b6040516101699190610918565b60405180910390f35b61018c6004803603810190610187919061072b565b610369565b60405161019b93929190610969565b60405180910390f35b6101be60048036038101906101b991906106ae565b6103d1565b6040516101cb919061094e565b60405180910390f35b600082826040516020016101e99291906108c6565b60405160208183030381529060405280519060200120905092915050565b6000806102148585610267565b90506000610221826103d1565b90508673ffffffffffffffffffffffffffffffffffffffff1661024482866102fa565b73ffffffffffffffffffffffffffffffffffffffff161492505050949350505050565b6000828260405160200161027c92919061089e565b60405160208183030381529060405280519060200120905092915050565b6000806102a785856101d4565b905060006102b4826103d1565b90508673ffffffffffffffffffffffffffffffffffffffff166102d782866102fa565b73ffffffffffffffffffffffffffffffffffffffff161492505050949350505050565b60008060008061030985610369565b9250925092506001868285856040516000815260200160405260405161033294939291906109a0565b6020604051602081039080840390855afa158015610354573d6000803e3d6000fd5b50505060206040510351935050505092915050565b600080600060418451146103b2576040517f08c379a00000000000000000000000000000000000000000000000000000000081526004016103a9906109e5565b60405180910390fd5b6020840151925060408401519150606084015160001a90509193909250565b6000816040516020016103e491906108f2565b604051602081830303815290604052805190602001209050919050565b600061041461040f84610a36565b610a05565b90508281526020810184848401111561042c57600080fd5b610437848285610b1c565b509392505050565b600061045261044d84610a66565b610a05565b90508281526020810184848401111561046a57600080fd5b610475848285610b1c565b509392505050565b60008135905061048c81610bd2565b92915050565b6000813590506104a181610be9565b92915050565b600082601f8301126104b857600080fd5b81356104c8848260208601610401565b91505092915050565b600082601f8301126104e257600080fd5b81356104f284826020860161043f565b91505092915050565b60008135905061050a81610c00565b92915050565b6000806000806080858703121561052657600080fd5b60006105348782880161047d565b94505060206105458782880161047d565b935050604085013567ffffffffffffffff81111561056257600080fd5b61056e878288016104d1565b925050606085013567ffffffffffffffff81111561058b57600080fd5b610597878288016104a7565b91505092959194509250565b600080600080608085870312156105b957600080fd5b60006105c78782880161047d565b94505060206105d88782880161047d565b93505060406105e9878288016104fb565b925050606085013567ffffffffffffffff81111561060657600080fd5b610612878288016104a7565b91505092959194509250565b6000806040838503121561063157600080fd5b600061063f8582860161047d565b925050602083013567ffffffffffffffff81111561065c57600080fd5b610668858286016104d1565b9150509250929050565b6000806040838503121561068557600080fd5b60006106938582860161047d565b92505060206106a4858286016104fb565b9150509250929050565b6000602082840312156106c057600080fd5b60006106ce84828501610492565b91505092915050565b600080604083850312156106ea57600080fd5b60006106f885828601610492565b925050602083013567ffffffffffffffff81111561071557600080fd5b610721858286016104a7565b9150509250929050565b60006020828403121561073d57600080fd5b600082013567ffffffffffffffff81111561075757600080fd5b610763848285016104a7565b91505092915050565b61077581610abd565b82525050565b61078c61078782610abd565b610b5e565b82525050565b61079b81610acf565b82525050565b6107aa81610adb565b82525050565b6107c16107bc82610adb565b610b70565b82525050565b60006107d282610a96565b6107dc8185610ab2565b93506107ec818560208601610b2b565b80840191505092915050565b6000610805601c83610ab2565b91507f19457468657265756d205369676e6564204d6573736167653a0a3332000000006000830152601c82019050919050565b6000610845601883610aa1565b91507f696e76616c6964207369676e6174757265206c656e67746800000000000000006000830152602082019050919050565b61088961088482610b05565b610b8c565b82525050565b61089881610b0f565b82525050565b60006108aa828561077b565b6014820191506108ba82846107c7565b91508190509392505050565b60006108d2828561077b565b6014820191506108e28284610878565b6020820191508190509392505050565b60006108fd826107f8565b915061090982846107b0565b60208201915081905092915050565b600060208201905061092d600083018461076c565b92915050565b60006020820190506109486000830184610792565b92915050565b600060208201905061096360008301846107a1565b92915050565b600060608201905061097e60008301866107a1565b61098b60208301856107a1565b610998604083018461088f565b949350505050565b60006080820190506109b560008301876107a1565b6109c2602083018661088f565b6109cf60408301856107a1565b6109dc60608301846107a1565b95945050505050565b600060208201905081810360008301526109fe81610838565b9050919050565b6000604051905081810181811067ffffffffffffffff82111715610a2c57610a2b610b96565b5b8060405250919050565b600067ffffffffffffffff821115610a5157610a50610b96565b5b601f19601f8301169050602081019050919050565b600067ffffffffffffffff821115610a8157610a80610b96565b5b601f19601f8301169050602081019050919050565b600081519050919050565b600082825260208201905092915050565b600081905092915050565b6000610ac882610ae5565b9050919050565b60008115159050919050565b6000819050919050565b600073ffffffffffffffffffffffffffffffffffffffff82169050919050565b6000819050919050565b600060ff82169050919050565b82818337600083830152505050565b60005b83811015610b49578082015181840152602081019050610b2e565b83811115610b58576000848401525b50505050565b6000610b6982610b7a565b9050919050565b6000819050919050565b6000610b8582610bc5565b9050919050565b6000819050919050565b7f4e487b7100000000000000000000000000000000000000000000000000000000600052604160045260246000fd5b60008160601b9050919050565b610bdb81610abd565b8114610be657600080fd5b50565b610bf281610adb565b8114610bfd57600080fd5b50565b610c0981610b05565b8114610c1457600080fd5b5056fea2646970667358221220473796438ef248ce48123f8149c92957737f99d5bd613e42e77c8827eff437e864736f6c63430008000033",
  "immutableReferences": {},
  "source": "// SPDX-License-Identifier: MIT\npragma solidity ^0.8.0;\n\ncontract DigitalSignature {\n\n    function getMessageHash(address _addr, string memory _data ) public pure returns (bytes32) {\n        return keccak256(abi.encodePacked(_addr, _data));\n    }\n    \n    function getMessageHashFromTokenId(address _addr, uint256 _tokenId ) public pure returns (bytes32) {\n        return keccak256(abi.encodePacked(_addr, _tokenId));\n    }\n\n    function getEthSignedMessageHash(bytes32 _messageHash) public pure returns (bytes32) {\n        return keccak256( abi.encodePacked(\"\\x19Ethereum Signed Message:\\n32\", _messageHash) );\n    }\n\n    function verify( address _signer, address _addr, uint _tokenId, bytes memory signature ) public pure returns (bool) {\n        bytes32 messageHash = getMessageHashFromTokenId(_addr, _tokenId);\n        bytes32 ethSignedMessageHash = getEthSignedMessageHash(messageHash);\n\n        return recoverSigner(ethSignedMessageHash, signature) == _signer;\n    }\n\n    function verify( address _signer, address _addr, string memory _tokenId, bytes memory signature ) public pure returns (bool) {\n        bytes32 messageHash = getMessageHash(_addr, _tokenId);\n        bytes32 ethSignedMessageHash = getEthSignedMessageHash(messageHash);\n\n        return recoverSigner(ethSignedMessageHash, signature) == _signer;\n    }\n\n    function recoverSigner(bytes32 _ethSignedMessageHash, bytes memory _signature)\n        public\n        pure\n        returns (address)\n    {\n        (bytes32 r, bytes32 s, uint8 v) = splitSignature(_signature);\n\n        return ecrecover(_ethSignedMessageHash, v, r, s);\n    }\n\n    function splitSignature(bytes memory sig)\n        public\n        pure\n        returns (\n            bytes32 r,\n            bytes32 s,\n            uint8 v\n        )\n    {\n        // Check the length of the signature, 65 is the standard length for r, s, v signature.\n        require(sig.length == 65, \"invalid signature length\");\n\n        assembly {\n            /*\n            First 32 bytes stores the length of the signature\n\n            add(sig, 32) = pointer of sig + 32\n            effectively, skips first 32 bytes of signature\n\n            mload(p) loads next 32 bytes starting at the memory address p into memory\n            */\n\n            // first 32 bytes, after the length prefix\n            r := mload(add(sig, 0x20))\n            // second 32 bytes\n            s := mload(add(sig, 0x40))\n            // final byte (first byte of the next 32 bytes)\n            v := byte(0, mload(add(sig, 0x60)))\n        }\n\n        // implicitly return (r, s, v)\n    }\n}",
  "sourcePath": "/Volumes/redcap/study/blockchain/assignment/project/prototype/identity-management/contracts/DigitalSignature.sol",
  "compiler": {
    "name": "solc",
    "version": "0.8.0+commit.c7dfd78e.Emscripten.clang"
  },
  "schemaVersion": "3.4.16",
  "updatedAt": "2023-10-07T14:12:24.432Z",
  "networkType": "ethereum",
  "devdoc": {
    "kind": "dev",
    "methods": {},
    "version": 1
  },
  "userdoc": {
    "kind": "user",
    "methods": {},
    "version": 1
  }
}