{
  "contractName": "MyIdUtil",
  "abi": [
    {
      "inputs": [],
      "stateMutability": "nonpayable",
      "type": "constructor"
    },
    {
      "inputs": [
        {
          "internalType": "address",
          "name": "userAddress",
          "type": "address"
        },
        {
          "internalType": "string",
          "name": "timestamp",
          "type": "string"
        }
      ],
      "name": "generateTokenId",
      "outputs": [
        {
          "internalType": "uint256",
          "name": "",
          "type": "uint256"
        }
      ],
      "stateMutability": "pure",
      "type": "function",
      "constant": true
    }
  ],
  "bytecode": "0x608060405234801561001057600080fd5b506103ae806100206000396000f3fe608060405234801561001057600080fd5b506004361061002b5760003560e01c8063ff51993d14610030575b600080fd5b61004a6004803603810190610045919061011e565b610060565b60405161005791906101f1565b60405180910390f35b60008083836040516020016100769291906101c9565b60405160208183030381529060405280519060200120905060008160001c9050809250505092915050565b60006100b46100af8461023d565b61020c565b9050828152602081018484840111156100cc57600080fd5b6100d78482856102bf565b509392505050565b6000813590506100ee81610361565b92915050565b600082601f83011261010557600080fd5b81356101158482602086016100a1565b91505092915050565b6000806040838503121561013157600080fd5b600061013f858286016100df565b925050602083013567ffffffffffffffff81111561015c57600080fd5b610168858286016100f4565b9150509250929050565b61018361017e82610283565b610301565b82525050565b60006101948261026d565b61019e8185610278565b93506101ae8185602086016102ce565b80840191505092915050565b6101c3816102b5565b82525050565b60006101d58285610172565b6014820191506101e58284610189565b91508190509392505050565b600060208201905061020660008301846101ba565b92915050565b6000604051905081810181811067ffffffffffffffff8211171561023357610232610325565b5b8060405250919050565b600067ffffffffffffffff82111561025857610257610325565b5b601f19601f8301169050602081019050919050565b600081519050919050565b600081905092915050565b600061028e82610295565b9050919050565b600073ffffffffffffffffffffffffffffffffffffffff82169050919050565b6000819050919050565b82818337600083830152505050565b60005b838110156102ec5780820151818401526020810190506102d1565b838111156102fb576000848401525b50505050565b600061030c82610313565b9050919050565b600061031e82610354565b9050919050565b7f4e487b7100000000000000000000000000000000000000000000000000000000600052604160045260246000fd5b60008160601b9050919050565b61036a81610283565b811461037557600080fd5b5056fea2646970667358221220f9af52b1a175efa90c6ac1124c5f0b5b45626ad5f43cf8faea44e0be4cdfbe3e64736f6c63430008000033",
  "immutableReferences": {},
  "source": "// SPDX-License-Identifier: MIT\npragma solidity ^0.8.0;\n\ncontract MyIdUtil {\n\n    // Mapping of addresses to their tokenIds\n    // mapping(address => uint256) public tokenIds;\n\n    constructor() {}\n\n    // Function to generate a tokenId\n    function generateTokenId(address userAddress, string memory timestamp) public pure returns (uint256) {\n\n        // Hash the user's address and the timestamp\n        bytes32 hash = keccak256(abi.encodePacked(userAddress, timestamp));\n        \n        // Convert the hash to a uint256\n        uint256 tokenId = uint256(hash);\n\n\n        return tokenId;\n    }\n\n    \n}",
  "sourcePath": "/Volumes/redcap/study/blockchain/assignment/project/prototype/identity-management/contracts/MyIdUtil.sol",
  "compiler": {
    "name": "solc",
    "version": "0.8.0+commit.c7dfd78e.Emscripten.clang"
  },
  "schemaVersion": "3.4.16",
  "updatedAt": "2023-10-30T14:23:05.559Z",
  "networkType": "ethereum",
  "devdoc": {
    "kind": "dev",
    "methods": {},
    "version": 1
  },
  "userdoc": {
    "kind": "user",
    "methods": {},
    "version": 1
  }
}