{
  "contractName": "PresentRequest",
  "abi": [
    {
      "inputs": [
        {
          "internalType": "bytes32",
          "name": "",
          "type": "bytes32"
        }
      ],
      "name": "requests",
      "outputs": [
        {
          "internalType": "string",
          "name": "credentialId",
          "type": "string"
        },
        {
          "internalType": "string",
          "name": "verifierAddress",
          "type": "string"
        },
        {
          "internalType": "string",
          "name": "requestId",
          "type": "string"
        },
        {
          "internalType": "string",
          "name": "userDid",
          "type": "string"
        },
        {
          "internalType": "string",
          "name": "otherInfo",
          "type": "string"
        }
      ],
      "stateMutability": "view",
      "type": "function",
      "constant": true
    },
    {
      "inputs": [
        {
          "internalType": "string",
          "name": "requestId",
          "type": "string"
        },
        {
          "internalType": "string",
          "name": "verifierAddress",
          "type": "string"
        }
      ],
      "name": "generateId",
      "outputs": [
        {
          "internalType": "bytes32",
          "name": "",
          "type": "bytes32"
        }
      ],
      "stateMutability": "pure",
      "type": "function",
      "constant": true
    },
    {
      "inputs": [
        {
          "internalType": "string",
          "name": "credentialId",
          "type": "string"
        },
        {
          "internalType": "string",
          "name": "verifierAddress",
          "type": "string"
        },
        {
          "internalType": "string",
          "name": "requestId",
          "type": "string"
        },
        {
          "internalType": "string",
          "name": "userDid",
          "type": "string"
        },
        {
          "internalType": "string",
          "name": "otherInfo",
          "type": "string"
        }
      ],
      "name": "save",
      "outputs": [],
      "stateMutability": "nonpayable",
      "type": "function"
    },
    {
      "inputs": [
        {
          "internalType": "string",
          "name": "requestId",
          "type": "string"
        },
        {
          "internalType": "string",
          "name": "verifierAddress",
          "type": "string"
        }
      ],
      "name": "getRequest",
      "outputs": [
        {
          "internalType": "string",
          "name": "",
          "type": "string"
        }
      ],
      "stateMutability": "view",
      "type": "function",
      "constant": true
    }
  ],
  "bytecode": "0x608060405234801561001057600080fd5b506110c5806100206000396000f3fe608060405234801561001057600080fd5b506004361061004c5760003560e01c80635d96c9fe1461005157806372f4a9bf146100815780639d8669851461009d578063b744349a146100d1575b600080fd5b61006b60048036038101906100669190610994565b610101565b6040516100789190610e50565b60405180910390f35b61009b60048036038101906100969190610a00565b610139565b005b6100b760048036038101906100b2919061096b565b61021c565b6040516100c8959493929190610e8d565b60405180910390f35b6100eb60048036038101906100e69190610994565b6104fa565b6040516100f89190610e6b565b60405180910390f35b6000808383604051602001610117929190610d68565b6040516020818303038152906040528051906020012090508091505092915050565b60006101458486610101565b90506040518060a0016040528087815260200186815260200185815260200184815260200183815250600080838152602001908152602001600020600082015181600001908051906020019061019c92919061084b565b5060208201518160010190805190602001906101b992919061084b565b5060408201518160020190805190602001906101d692919061084b565b5060608201518160030190805190602001906101f392919061084b565b50608082015181600401908051906020019061021092919061084b565b50905050505050505050565b600060205280600052604060002060009150905080600001805461023f90610fd7565b80601f016020809104026020016040519081016040528092919081815260200182805461026b90610fd7565b80156102b85780601f1061028d576101008083540402835291602001916102b8565b820191906000526020600020905b81548152906001019060200180831161029b57829003601f168201915b5050505050908060010180546102cd90610fd7565b80601f01602080910402602001604051908101604052809291908181526020018280546102f990610fd7565b80156103465780601f1061031b57610100808354040283529160200191610346565b820191906000526020600020905b81548152906001019060200180831161032957829003601f168201915b50505050509080600201805461035b90610fd7565b80601f016020809104026020016040519081016040528092919081815260200182805461038790610fd7565b80156103d45780601f106103a9576101008083540402835291602001916103d4565b820191906000526020600020905b8154815290600101906020018083116103b757829003601f168201915b5050505050908060030180546103e990610fd7565b80601f016020809104026020016040519081016040528092919081815260200182805461041590610fd7565b80156104625780601f1061043757610100808354040283529160200191610462565b820191906000526020600020905b81548152906001019060200180831161044557829003601f168201915b50505050509080600401805461047790610fd7565b80601f01602080910402602001604051908101604052809291908181526020018280546104a390610fd7565b80156104f05780601f106104c5576101008083540402835291602001916104f0565b820191906000526020600020905b8154815290600101906020018083116104d357829003601f168201915b5050505050905085565b606060006105088484610101565b905060008060008381526020019081526020016000206040518060a001604052908160008201805461053990610fd7565b80601f016020809104026020016040519081016040528092919081815260200182805461056590610fd7565b80156105b25780601f10610587576101008083540402835291602001916105b2565b820191906000526020600020905b81548152906001019060200180831161059557829003601f168201915b505050505081526020016001820180546105cb90610fd7565b80601f01602080910402602001604051908101604052809291908181526020018280546105f790610fd7565b80156106445780601f1061061957610100808354040283529160200191610644565b820191906000526020600020905b81548152906001019060200180831161062757829003601f168201915b5050505050815260200160028201805461065d90610fd7565b80601f016020809104026020016040519081016040528092919081815260200182805461068990610fd7565b80156106d65780601f106106ab576101008083540402835291602001916106d6565b820191906000526020600020905b8154815290600101906020018083116106b957829003601f168201915b505050505081526020016003820180546106ef90610fd7565b80601f016020809104026020016040519081016040528092919081815260200182805461071b90610fd7565b80156107685780601f1061073d57610100808354040283529160200191610768565b820191906000526020600020905b81548152906001019060200180831161074b57829003601f168201915b5050505050815260200160048201805461078190610fd7565b80601f01602080910402602001604051908101604052809291908181526020018280546107ad90610fd7565b80156107fa5780601f106107cf576101008083540402835291602001916107fa565b820191906000526020600020905b8154815290600101906020018083116107dd57829003601f168201915b505050505081525050905080600001518160200151826040015183606001518460800151604051602001610832959493929190610d8c565b6040516020818303038152906040529250505092915050565b82805461085790610fd7565b90600052602060002090601f01602090048101928261087957600085556108c0565b82601f1061089257805160ff19168380011785556108c0565b828001600101855582156108c0579182015b828111156108bf5782518255916020019190600101906108a4565b5b5090506108cd91906108d1565b5090565b5b808211156108ea5760008160009055506001016108d2565b5090565b60006109016108fc84610f34565b610f03565b90508281526020810184848401111561091957600080fd5b610924848285610f95565b509392505050565b60008135905061093b81611078565b92915050565b600082601f83011261095257600080fd5b81356109628482602086016108ee565b91505092915050565b60006020828403121561097d57600080fd5b600061098b8482850161092c565b91505092915050565b600080604083850312156109a757600080fd5b600083013567ffffffffffffffff8111156109c157600080fd5b6109cd85828601610941565b925050602083013567ffffffffffffffff8111156109ea57600080fd5b6109f685828601610941565b9150509250929050565b600080600080600060a08688031215610a1857600080fd5b600086013567ffffffffffffffff811115610a3257600080fd5b610a3e88828901610941565b955050602086013567ffffffffffffffff811115610a5b57600080fd5b610a6788828901610941565b945050604086013567ffffffffffffffff811115610a8457600080fd5b610a9088828901610941565b935050606086013567ffffffffffffffff811115610aad57600080fd5b610ab988828901610941565b925050608086013567ffffffffffffffff811115610ad657600080fd5b610ae288828901610941565b9150509295509295909350565b610af881610f8b565b82525050565b6000610b0982610f64565b610b138185610f6f565b9350610b23818560208601610fa4565b610b2c81611067565b840191505092915050565b6000610b4282610f64565b610b4c8185610f80565b9350610b5c818560208601610fa4565b80840191505092915050565b6000610b75600283610f80565b91507f222c0000000000000000000000000000000000000000000000000000000000006000830152600282019050919050565b6000610bb5601483610f80565b91507f22766572696669657241646472657373223a20220000000000000000000000006000830152601482019050919050565b6000610bf5601183610f80565b91507f2263726564656e7469616c4964223a20220000000000000000000000000000006000830152601182019050919050565b6000610c35600e83610f80565b91507f226f74686572496e666f223a20220000000000000000000000000000000000006000830152600e82019050919050565b6000610c75600283610f80565b91507f227d0000000000000000000000000000000000000000000000000000000000006000830152600282019050919050565b6000610cb5600c83610f80565b91507f2275736572446964223a202200000000000000000000000000000000000000006000830152600c82019050919050565b6000610cf5600183610f80565b91507f7b000000000000000000000000000000000000000000000000000000000000006000830152600182019050919050565b6000610d35600e83610f80565b91507f22726571756573744964223a20220000000000000000000000000000000000006000830152600e82019050919050565b6000610d748285610b37565b9150610d808284610b37565b91508190509392505050565b6000610d9782610ce8565b9150610da282610be8565b9150610dae8288610b37565b9150610db982610b68565b9150610dc482610ba8565b9150610dd08287610b37565b9150610ddb82610b68565b9150610de682610d28565b9150610df28286610b37565b9150610dfd82610b68565b9150610e0882610ca8565b9150610e148285610b37565b9150610e1f82610b68565b9150610e2a82610c28565b9150610e368284610b37565b9150610e4182610c68565b91508190509695505050505050565b6000602082019050610e656000830184610aef565b92915050565b60006020820190508181036000830152610e858184610afe565b905092915050565b600060a0820190508181036000830152610ea78188610afe565b90508181036020830152610ebb8187610afe565b90508181036040830152610ecf8186610afe565b90508181036060830152610ee38185610afe565b90508181036080830152610ef78184610afe565b90509695505050505050565b6000604051905081810181811067ffffffffffffffff82111715610f2a57610f29611038565b5b8060405250919050565b600067ffffffffffffffff821115610f4f57610f4e611038565b5b601f19601f8301169050602081019050919050565b600081519050919050565b600082825260208201905092915050565b600081905092915050565b6000819050919050565b82818337600083830152505050565b60005b83811015610fc2578082015181840152602081019050610fa7565b83811115610fd1576000848401525b50505050565b60006002820490506001821680610fef57607f821691505b6020821081141561100357611002611009565b5b50919050565b7f4e487b7100000000000000000000000000000000000000000000000000000000600052602260045260246000fd5b7f4e487b7100000000000000000000000000000000000000000000000000000000600052604160045260246000fd5b6000601f19601f8301169050919050565b61108181610f8b565b811461108c57600080fd5b5056fea26469706673582212209f0e503888ee704925b7253e4ba2d277a9a5d08f920fb57310e9af77577d87df64736f6c63430008000033",
  "immutableReferences": {},
  "source": "// SPDX-License-Identifier: MIT\npragma solidity ^0.8.0;\n\ncontract PresentRequest {\n    struct Request {\n        string credentialId;\n        string verifierAddress;\n        string requestId;\n        string userDid;\n        string otherInfo;\n    }\n\n    mapping(bytes32 => Request) public requests;\n\n    function generateId(string memory requestId, string memory verifierAddress) public pure returns (bytes32) {\n        bytes32 id = keccak256(\n            abi.encodePacked(requestId, verifierAddress)\n        );\n        return id;\n    }\n\n    function save(\n        string memory credentialId,\n        string memory verifierAddress,\n        string memory requestId,\n        string memory userDid,\n        string memory otherInfo\n    ) public {\n        bytes32 id = generateId(requestId, verifierAddress);\n\n        requests[id] = Request(\n            credentialId,\n            verifierAddress,\n            requestId,\n            userDid,\n            otherInfo\n        );\n    }\n\n    function getRequest(string memory requestId, string memory verifierAddress) public view returns (string memory) {\n        bytes32 id = generateId(requestId, verifierAddress);\n\n        Request memory request = requests[id];\n        return\n            string(\n                abi.encodePacked(\n                    \"{\",\n                    '\"credentialId\": \"',\n                    request.credentialId,\n                    '\",',\n                    '\"verifierAddress\": \"',\n                    request.verifierAddress,\n                    '\",',\n                    '\"requestId\": \"',\n                    request.requestId,\n                    '\",',\n                    '\"userDid\": \"',\n                    request.userDid,\n                    '\",',\n                    '\"otherInfo\": \"',\n                    request.otherInfo,\n                    '\"}'\n                )\n            );\n    }\n  \n}\n",
  "sourcePath": "/Volumes/redcap/study/blockchain/assignment/project/prototype/identity-management/contracts/PresentRequest.sol",
  "compiler": {
    "name": "solc",
    "version": "0.8.0+commit.c7dfd78e.Emscripten.clang"
  },
  "schemaVersion": "3.4.16",
  "updatedAt": "2023-10-30T12:18:51.245Z",
  "networkType": "ethereum",
  "devdoc": {
    "kind": "dev",
    "methods": {},
    "version": 1
  },
  "userdoc": {
    "kind": "user",
    "methods": {},
    "version": 1
  }
}