{
  "contractName": "VerifiableCredential",
  "abi": [
    {
      "inputs": [
        {
          "internalType": "bytes32",
          "name": "",
          "type": "bytes32"
        }
      ],
      "name": "credentials",
      "outputs": [
        {
          "internalType": "string",
          "name": "credentialId",
          "type": "string"
        },
        {
          "internalType": "address",
          "name": "issuer",
          "type": "address"
        },
        {
          "internalType": "string",
          "name": "userDid",
          "type": "string"
        },
        {
          "internalType": "string",
          "name": "data",
          "type": "string"
        },
        {
          "internalType": "bool",
          "name": "isRevoked",
          "type": "bool"
        },
        {
          "internalType": "bytes",
          "name": "signature",
          "type": "bytes"
        }
      ],
      "stateMutability": "view",
      "type": "function",
      "constant": true
    },
    {
      "inputs": [
        {
          "internalType": "string",
          "name": "userDid",
          "type": "string"
        },
        {
          "internalType": "string",
          "name": "credentialId",
          "type": "string"
        }
      ],
      "name": "getMessageHash",
      "outputs": [
        {
          "internalType": "bytes32",
          "name": "",
          "type": "bytes32"
        }
      ],
      "stateMutability": "pure",
      "type": "function",
      "constant": true
    },
    {
      "inputs": [
        {
          "internalType": "string",
          "name": "userDid",
          "type": "string"
        },
        {
          "internalType": "string",
          "name": "credentialId",
          "type": "string"
        }
      ],
      "name": "getMessageHashHex",
      "outputs": [
        {
          "internalType": "string",
          "name": "",
          "type": "string"
        }
      ],
      "stateMutability": "pure",
      "type": "function",
      "constant": true
    },
    {
      "inputs": [
        {
          "internalType": "string",
          "name": "userDid",
          "type": "string"
        },
        {
          "internalType": "string",
          "name": "credentialId",
          "type": "string"
        },
        {
          "internalType": "string",
          "name": "data",
          "type": "string"
        },
        {
          "internalType": "bytes",
          "name": "signature",
          "type": "bytes"
        }
      ],
      "name": "issue",
      "outputs": [],
      "stateMutability": "nonpayable",
      "type": "function"
    },
    {
      "inputs": [
        {
          "internalType": "string",
          "name": "userDid",
          "type": "string"
        },
        {
          "internalType": "string",
          "name": "credentialId",
          "type": "string"
        }
      ],
      "name": "getCredential",
      "outputs": [
        {
          "internalType": "string",
          "name": "",
          "type": "string"
        }
      ],
      "stateMutability": "view",
      "type": "function",
      "constant": true
    },
    {
      "inputs": [
        {
          "internalType": "string",
          "name": "userDid",
          "type": "string"
        },
        {
          "internalType": "string",
          "name": "credentialId",
          "type": "string"
        }
      ],
      "name": "verify",
      "outputs": [
        {
          "internalType": "bool",
          "name": "isValid",
          "type": "bool"
        }
      ],
      "stateMutability": "view",
      "type": "function",
      "constant": true
    },
    {
      "inputs": [
        {
          "internalType": "string",
          "name": "userDid",
          "type": "string"
        },
        {
          "internalType": "string",
          "name": "credentialId",
          "type": "string"
        }
      ],
      "name": "revoke",
      "outputs": [],
      "stateMutability": "nonpayable",
      "type": "function"
    },
    {
      "inputs": [
        {
          "internalType": "string",
          "name": "userDid",
          "type": "string"
        },
        {
          "internalType": "string",
          "name": "credentialId",
          "type": "string"
        }
      ],
      "name": "generateId",
      "outputs": [
        {
          "internalType": "bytes32",
          "name": "",
          "type": "bytes32"
        }
      ],
      "stateMutability": "pure",
      "type": "function",
      "constant": true
    }
  ],
  "bytecode": "0x608060405234801561001057600080fd5b506124f5806100206000396000f3fe608060405234801561001057600080fd5b50600436106100885760003560e01c80635d96c9fe1161005b5780635d96c9fe1461013e5780637d2dd2151461016e5780639deb17f51461018a578063c1404b50146101ba57610088565b806310b40f851461008d578063299d0348146100a957806333d46c87146100de5780634ce984171461010e575b600080fd5b6100a760048036038101906100a291906118a8565b6101ea565b005b6100c360048036038101906100be919061187f565b6102ce565b6040516100d596959493929190612028565b60405180910390f35b6100f860048036038101906100f391906118a8565b610557565b6040516101059190612006565b60405180910390f35b610128600480360381019061012391906118a8565b6108a5565b6040516101359190611fa6565b60405180910390f35b610158600480360381019061015391906118a8565b6108d8565b6040516101659190611fa6565b60405180910390f35b61018860048036038101906101839190611914565b610910565b005b6101a4600480360381019061019f91906118a8565b610a5b565b6040516101b19190611f8b565b60405180910390f35b6101d460048036038101906101cf91906118a8565b610ce8565b6040516101e19190612006565b60405180910390f35b60006101f683836108d8565b905060008082815260200190815260200160002060010160009054906101000a900473ffffffffffffffffffffffffffffffffffffffff1673ffffffffffffffffffffffffffffffffffffffff163373ffffffffffffffffffffffffffffffffffffffff161461029b576040517f08c379a0000000000000000000000000000000000000000000000000000000008152600401610292906120c5565b60405180910390fd5b600160008083815260200190815260200160002060040160006101000a81548160ff021916908315150217905550505050565b60006020528060005260406000206000915090508060000180546102f190612354565b80601f016020809104026020016040519081016040528092919081815260200182805461031d90612354565b801561036a5780601f1061033f5761010080835404028352916020019161036a565b820191906000526020600020905b81548152906001019060200180831161034d57829003601f168201915b5050505050908060010160009054906101000a900473ffffffffffffffffffffffffffffffffffffffff16908060020180546103a590612354565b80601f01602080910402602001604051908101604052809291908181526020018280546103d190612354565b801561041e5780601f106103f35761010080835404028352916020019161041e565b820191906000526020600020905b81548152906001019060200180831161040157829003601f168201915b50505050509080600301805461043390612354565b80601f016020809104026020016040519081016040528092919081815260200182805461045f90612354565b80156104ac5780601f10610481576101008083540402835291602001916104ac565b820191906000526020600020905b81548152906001019060200180831161048f57829003601f168201915b5050505050908060040160009054906101000a900460ff16908060050180546104d490612354565b80601f016020809104026020016040519081016040528092919081815260200182805461050090612354565b801561054d5780601f106105225761010080835404028352916020019161054d565b820191906000526020600020905b81548152906001019060200180831161053057829003601f168201915b5050505050905086565b6060600061056584846108d8565b905060008060008381526020019081526020016000206040518060c001604052908160008201805461059690612354565b80601f01602080910402602001604051908101604052809291908181526020018280546105c290612354565b801561060f5780601f106105e45761010080835404028352916020019161060f565b820191906000526020600020905b8154815290600101906020018083116105f257829003601f168201915b505050505081526020016001820160009054906101000a900473ffffffffffffffffffffffffffffffffffffffff1673ffffffffffffffffffffffffffffffffffffffff1673ffffffffffffffffffffffffffffffffffffffff16815260200160028201805461067e90612354565b80601f01602080910402602001604051908101604052809291908181526020018280546106aa90612354565b80156106f75780601f106106cc576101008083540402835291602001916106f7565b820191906000526020600020905b8154815290600101906020018083116106da57829003601f168201915b5050505050815260200160038201805461071090612354565b80601f016020809104026020016040519081016040528092919081815260200182805461073c90612354565b80156107895780601f1061075e57610100808354040283529160200191610789565b820191906000526020600020905b81548152906001019060200180831161076c57829003601f168201915b505050505081526020016004820160009054906101000a900460ff161515151581526020016005820180546107bd90612354565b80601f01602080910402602001604051908101604052809291908181526020018280546107e990612354565b80156108365780601f1061080b57610100808354040283529160200191610836565b820191906000526020600020905b81548152906001019060200180831161081957829003601f168201915b505050505081525050905061084e8160200151610d04565b81604001518260600151836000015161086a8560800151610d35565b6108778660a00151610db5565b60405160200161088c96959493929190611eaf565b6040516020818303038152906040529250505092915050565b600082826040516020016108ba929190611e65565b60405160208183030381529060405280519060200120905092915050565b60008083836040516020016108ee929190611e65565b6040516020818303038152906040528051906020012090508091505092915050565b600061091c85856108d8565b90506040518060c001604052808581526020013373ffffffffffffffffffffffffffffffffffffffff168152602001868152602001848152602001600015158152602001838152506000808381526020019081526020016000206000820151816000019080519060200190610992929190611671565b5060208201518160010160006101000a81548173ffffffffffffffffffffffffffffffffffffffff021916908373ffffffffffffffffffffffffffffffffffffffff16021790555060408201518160020190805190602001906109f6929190611671565b506060820151816003019080519060200190610a13929190611671565b5060808201518160040160006101000a81548160ff02191690831515021790555060a0820151816005019080519060200190610a509291906116f7565b509050505050505050565b600080610a6884846108d8565b9050600080600083815260200190815260200160002090508060040160009054906101000a900460ff1615610aa257600092505050610ce2565b6000610bc6826002018054610ab690612354565b80601f0160208091040260200160405190810160405280929190818152602001828054610ae290612354565b8015610b2f5780601f10610b0457610100808354040283529160200191610b2f565b820191906000526020600020905b815481529060010190602001808311610b1257829003601f168201915b5050505050836000018054610b4390612354565b80601f0160208091040260200160405190810160405280929190818152602001828054610b6f90612354565b8015610bbc5780601f10610b9157610100808354040283529160200191610bbc565b820191906000526020600020905b815481529060010190602001808311610b9f57829003601f168201915b50505050506108a5565b9050600081604051602001610bdb9190611e89565b6040516020818303038152906040528051906020012090508260010160009054906101000a900473ffffffffffffffffffffffffffffffffffffffff1673ffffffffffffffffffffffffffffffffffffffff16610cc482856005018054610c4190612354565b80601f0160208091040260200160405190810160405280929190818152602001828054610c6d90612354565b8015610cba5780601f10610c8f57610100808354040283529160200191610cba565b820191906000526020600020905b815481529060010190602001808311610c9d57829003601f168201915b5050505050611205565b73ffffffffffffffffffffffffffffffffffffffff16149450505050505b92915050565b6060610cfc610cf784846108a5565b611274565b905092915050565b6060610d2e82604051602001610d1a9190611e4a565b604051602081830303815290604052610db5565b9050919050565b606081610d77576040518060400160405280600581526020017f66616c7365000000000000000000000000000000000000000000000000000000815250610dae565b6040518060400160405280600481526020017f74727565000000000000000000000000000000000000000000000000000000008152505b9050919050565b606060006040518060400160405280601081526020017f30313233343536373839616263646566000000000000000000000000000000008152509050600060028451610e01919061222f565b6002610e0d91906121d9565b67ffffffffffffffff811115610e4c577f4e487b7100000000000000000000000000000000000000000000000000000000600052604160045260246000fd5b6040519080825280601f01601f191660200182016040528015610e7e5781602001600182028036833780820191505090505b5090507f300000000000000000000000000000000000000000000000000000000000000081600081518110610edc577f4e487b7100000000000000000000000000000000000000000000000000000000600052603260045260246000fd5b60200101907effffffffffffffffffffffffffffffffffffffffffffffffffffffffffffff1916908160001a9053507f780000000000000000000000000000000000000000000000000000000000000081600181518110610f66577f4e487b7100000000000000000000000000000000000000000000000000000000600052603260045260246000fd5b60200101907effffffffffffffffffffffffffffffffffffffffffffffffffffffffffffff1916908160001a90535060005b84518110156111fa57826004868381518110610fdd577f4e487b7100000000000000000000000000000000000000000000000000000000600052603260045260246000fd5b602001015160f81c60f81b7effffffffffffffffffffffffffffffffffffffffffffffffffffffffffffff1916901c60f81c60ff1681518110611049577f4e487b7100000000000000000000000000000000000000000000000000000000600052603260045260246000fd5b602001015160f81c60f81b82600283611062919061222f565b600261106e91906121d9565b815181106110a5577f4e487b7100000000000000000000000000000000000000000000000000000000600052603260045260246000fd5b60200101907effffffffffffffffffffffffffffffffffffffffffffffffffffffffffffff1916908160001a90535082600f60f81b868381518110611113577f4e487b7100000000000000000000000000000000000000000000000000000000600052603260045260246000fd5b602001015160f81c60f81b1660f81c60ff168151811061115c577f4e487b7100000000000000000000000000000000000000000000000000000000600052603260045260246000fd5b602001015160f81c60f81b82600283611175919061222f565b600361118191906121d9565b815181106111b8577f4e487b7100000000000000000000000000000000000000000000000000000000600052603260045260246000fd5b60200101907effffffffffffffffffffffffffffffffffffffffffffffffffffffffffffff1916908160001a90535080806111f290612386565b915050610f98565b508092505050919050565b60008060008061121485611289565b9250925092506001868285856040516000815260200160405260405161123d9493929190611fc1565b6020604051602081039080840390855afa15801561125f573d6000803e3d6000fd5b50505060206040510351935050505092915050565b60606112828260001c6112f1565b9050919050565b600080600060418451146112d2576040517f08c379a00000000000000000000000000000000000000000000000000000000081526004016112c9906120e5565b60405180910390fd5b6020840151925060408401519150606084015160001a90509193909250565b60606000821415611339576040518060400160405280600481526020017f30783030000000000000000000000000000000000000000000000000000000008152509050611372565b600082905060005b6000821461136357808061135490612386565b915050600882901c9150611341565b61136d8482611377565b925050505b919050565b60606000600283600261138a919061222f565b61139491906121d9565b67ffffffffffffffff8111156113d3577f4e487b7100000000000000000000000000000000000000000000000000000000600052604160045260246000fd5b6040519080825280601f01601f1916602001820160405280156114055781602001600182028036833780820191505090505b5090507f300000000000000000000000000000000000000000000000000000000000000081600081518110611463577f4e487b7100000000000000000000000000000000000000000000000000000000600052603260045260246000fd5b60200101907effffffffffffffffffffffffffffffffffffffffffffffffffffffffffffff1916908160001a9053507f7800000000000000000000000000000000000000000000000000000000000000816001815181106114ed577f4e487b7100000000000000000000000000000000000000000000000000000000600052603260045260246000fd5b60200101907effffffffffffffffffffffffffffffffffffffffffffffffffffffffffffff1916908160001a9053506000600184600261152d919061222f565b61153791906121d9565b90505b6001811115611623577f3031323334353637383961626364656600000000000000000000000000000000600f86166010811061159f577f4e487b7100000000000000000000000000000000000000000000000000000000600052603260045260246000fd5b1a60f81b8282815181106115dc577f4e487b7100000000000000000000000000000000000000000000000000000000600052603260045260246000fd5b60200101907effffffffffffffffffffffffffffffffffffffffffffffffffffffffffffff1916908160001a905350600485901c94508061161c9061232a565b905061153a565b5060008414611667576040517f08c379a000000000000000000000000000000000000000000000000000000000815260040161165e906120a5565b60405180910390fd5b8091505092915050565b82805461167d90612354565b90600052602060002090601f01602090048101928261169f57600085556116e6565b82601f106116b857805160ff19168380011785556116e6565b828001600101855582156116e6579182015b828111156116e55782518255916020019190600101906116ca565b5b5090506116f3919061177d565b5090565b82805461170390612354565b90600052602060002090601f016020900481019282611725576000855561176c565b82601f1061173e57805160ff191683800117855561176c565b8280016001018555821561176c579182015b8281111561176b578251825591602001919060010190611750565b5b509050611779919061177d565b5090565b5b8082111561179657600081600090555060010161177e565b5090565b60006117ad6117a884612136565b612105565b9050828152602081018484840111156117c557600080fd5b6117d08482856122e8565b509392505050565b60006117eb6117e684612166565b612105565b90508281526020810184848401111561180357600080fd5b61180e8482856122e8565b509392505050565b600081359050611825816124a8565b92915050565b600082601f83011261183c57600080fd5b813561184c84826020860161179a565b91505092915050565b600082601f83011261186657600080fd5b81356118768482602086016117d8565b91505092915050565b60006020828403121561189157600080fd5b600061189f84828501611816565b91505092915050565b600080604083850312156118bb57600080fd5b600083013567ffffffffffffffff8111156118d557600080fd5b6118e185828601611855565b925050602083013567ffffffffffffffff8111156118fe57600080fd5b61190a85828601611855565b9150509250929050565b6000806000806080858703121561192a57600080fd5b600085013567ffffffffffffffff81111561194457600080fd5b61195087828801611855565b945050602085013567ffffffffffffffff81111561196d57600080fd5b61197987828801611855565b935050604085013567ffffffffffffffff81111561199657600080fd5b6119a287828801611855565b925050606085013567ffffffffffffffff8111156119bf57600080fd5b6119cb8782880161182b565b91505092959194509250565b6119e081612289565b82525050565b6119f76119f282612289565b6123cf565b82525050565b611a068161229b565b82525050565b611a15816122a7565b82525050565b611a2c611a27826122a7565b6123e1565b82525050565b6000611a3d82612196565b611a4781856121ac565b9350611a578185602086016122f7565b611a608161248a565b840191505092915050565b6000611a76826121a1565b611a8081856121bd565b9350611a908185602086016122f7565b611a998161248a565b840191505092915050565b6000611aaf826121a1565b611ab981856121ce565b9350611ac98185602086016122f7565b80840191505092915050565b6000611ae26020836121bd565b91507f537472696e67733a20686578206c656e67746820696e73756666696369656e746000830152602082019050919050565b6000611b22601c836121ce565b91507f19457468657265756d205369676e6564204d6573736167653a0a3332000000006000830152601c82019050919050565b6000611b626026836121bd565b91507f4f6e6c79206973737565722063616e207265766f6b652074686973206372656460008301527f656e7469616c00000000000000000000000000000000000000000000000000006020830152604082019050919050565b6000611bc86002836121ce565b91507f222c0000000000000000000000000000000000000000000000000000000000006000830152600282019050919050565b6000611c086011836121ce565b91507f222c20227369676e6174757265223a20220000000000000000000000000000006000830152601182019050919050565b6000611c486011836121ce565b91507f2263726564656e7469616c4964223a20220000000000000000000000000000006000830152601182019050919050565b6000611c88600b836121ce565b91507f22697373756572223a20220000000000000000000000000000000000000000006000830152600b82019050919050565b6000611cc86002836121ce565b91507f227d0000000000000000000000000000000000000000000000000000000000006000830152600282019050919050565b6000611d08600c836121ce565b91507f2275736572446964223a202200000000000000000000000000000000000000006000830152600c82019050919050565b6000611d486001836121ce565b91507f7b000000000000000000000000000000000000000000000000000000000000006000830152600182019050919050565b6000611d886009836121ce565b91507f2264617461223a202200000000000000000000000000000000000000000000006000830152600982019050919050565b6000611dc8600e836121ce565b91507f2269735265766f6b6564223a20220000000000000000000000000000000000006000830152600e82019050919050565b6000611e086018836121bd565b91507f696e76616c6964207369676e6174757265206c656e67746800000000000000006000830152602082019050919050565b611e44816122db565b82525050565b6000611e5682846119e6565b60148201915081905092915050565b6000611e718285611aa4565b9150611e7d8284611aa4565b91508190509392505050565b6000611e9482611b15565b9150611ea08284611a1b565b60208201915081905092915050565b6000611eba82611d3b565b9150611ec582611c7b565b9150611ed18289611aa4565b9150611edc82611bbb565b9150611ee782611cfb565b9150611ef38288611aa4565b9150611efe82611bbb565b9150611f0982611d7b565b9150611f158287611aa4565b9150611f2082611bbb565b9150611f2b82611c3b565b9150611f378286611aa4565b9150611f4282611bbb565b9150611f4d82611dbb565b9150611f598285611aa4565b9150611f6482611bfb565b9150611f708284611aa4565b9150611f7b82611cbb565b9150819050979650505050505050565b6000602082019050611fa060008301846119fd565b92915050565b6000602082019050611fbb6000830184611a0c565b92915050565b6000608082019050611fd66000830187611a0c565b611fe36020830186611e3b565b611ff06040830185611a0c565b611ffd6060830184611a0c565b95945050505050565b600060208201905081810360008301526120208184611a6b565b905092915050565b600060c08201905081810360008301526120428189611a6b565b905061205160208301886119d7565b81810360408301526120638187611a6b565b905081810360608301526120778186611a6b565b905061208660808301856119fd565b81810360a08301526120988184611a32565b9050979650505050505050565b600060208201905081810360008301526120be81611ad5565b9050919050565b600060208201905081810360008301526120de81611b55565b9050919050565b600060208201905081810360008301526120fe81611dfb565b9050919050565b6000604051905081810181811067ffffffffffffffff8211171561212c5761212b61245b565b5b8060405250919050565b600067ffffffffffffffff8211156121515761215061245b565b5b601f19601f8301169050602081019050919050565b600067ffffffffffffffff8211156121815761218061245b565b5b601f19601f8301169050602081019050919050565b600081519050919050565b600081519050919050565b600082825260208201905092915050565b600082825260208201905092915050565b600081905092915050565b60006121e4826122d1565b91506121ef836122d1565b9250827fffffffffffffffffffffffffffffffffffffffffffffffffffffffffffffffff03821115612224576122236123fd565b5b828201905092915050565b600061223a826122d1565b9150612245836122d1565b9250817fffffffffffffffffffffffffffffffffffffffffffffffffffffffffffffffff048311821515161561227e5761227d6123fd565b5b828202905092915050565b6000612294826122b1565b9050919050565b60008115159050919050565b6000819050919050565b600073ffffffffffffffffffffffffffffffffffffffff82169050919050565b6000819050919050565b600060ff82169050919050565b82818337600083830152505050565b60005b838110156123155780820151818401526020810190506122fa565b83811115612324576000848401525b50505050565b6000612335826122d1565b91506000821415612349576123486123fd565b5b600182039050919050565b6000600282049050600182168061236c57607f821691505b602082108114156123805761237f61242c565b5b50919050565b6000612391826122d1565b91507fffffffffffffffffffffffffffffffffffffffffffffffffffffffffffffffff8214156123c4576123c36123fd565b5b600182019050919050565b60006123da826123eb565b9050919050565b6000819050919050565b60006123f68261249b565b9050919050565b7f4e487b7100000000000000000000000000000000000000000000000000000000600052601160045260246000fd5b7f4e487b7100000000000000000000000000000000000000000000000000000000600052602260045260246000fd5b7f4e487b7100000000000000000000000000000000000000000000000000000000600052604160045260246000fd5b6000601f19601f8301169050919050565b60008160601b9050919050565b6124b1816122a7565b81146124bc57600080fd5b5056fea264697066735822122095b230d8a75be74bd3720ab529bbe6befc8a2e85cbcf4481f27abd7fd725480a64736f6c63430008000033",
  "immutableReferences": {},
  "source": "// SPDX-License-Identifier: MIT\npragma solidity ^0.8.0;\n\nimport \"@openzeppelin/contracts/utils/Strings.sol\";\n\ncontract VerifiableCredential {\n    struct Credential {\n        string credentialId;\n        address issuer;\n        string userDid;\n        string data;\n        bool isRevoked;\n        bytes signature;\n    }\n\n    mapping(bytes32 => Credential) public credentials;\n\n\n    function getMessageHash(string memory userDid, string memory credentialId) public pure returns (bytes32) {\n        return keccak256(abi.encodePacked(userDid, credentialId));\n    }\n\n    function getMessageHashHex(string memory userDid, string memory credentialId) public pure returns (string memory) {\n        return convertBytes32ToHex(getMessageHash(userDid, credentialId));\n    }\n\n    function issue(\n        string memory userDid,\n        string memory credentialId,\n        string memory data,\n        bytes memory signature\n    ) public {\n        bytes32 id = generateId(userDid, credentialId);\n\n        credentials[id] = Credential(\n            credentialId,\n            msg.sender,\n            userDid,\n            data,\n            false,\n            signature\n        );\n    }\n\n    function getCredential(string memory userDid, string memory credentialId) public view returns (string memory) {\n        bytes32 id = generateId(userDid, credentialId);\n\n        Credential memory credential = credentials[id];\n        return\n            string(\n                abi.encodePacked(\n                    \"{\",\n                    '\"issuer\": \"',\n                    toString(credential.issuer),\n                    '\",',\n                    '\"userDid\": \"',\n                    credential.userDid,\n                    '\",',\n                    '\"data\": \"',\n                    credential.data,\n                    '\",',\n                    '\"credentialId\": \"',\n                    credential.credentialId,\n                    '\",',\n                    '\"isRevoked\": \"',\n                    boolToString(credential.isRevoked),\n                    '\", \"signature\": \"',\n                    toString(credential.signature),\n                    '\"}'\n                )\n            );\n    }\n\n    function verify(string memory userDid, string memory credentialId) public view returns (bool isValid) {\n        bytes32 id = generateId(userDid, credentialId);\n\n        Credential storage credential = credentials[id];\n        if (credential.isRevoked) {\n            return false;\n        }\n     \n        bytes32 hashMessage = getMessageHash(credential.userDid, credential.credentialId);\n        bytes32 ethSignedMessageHash = keccak256(abi.encodePacked(\"\\x19Ethereum Signed Message:\\n32\", hashMessage));\n\n\n        return recoverSigner(ethSignedMessageHash, credential.signature) == credential.issuer;\n\n    }\n\n    function revoke(string memory userDid, string memory credentialId) public {\n        bytes32 id = generateId(userDid, credentialId);\n\n        require(msg.sender == credentials[id].issuer, \"Only issuer can revoke this credential\");\n        credentials[id].isRevoked = true;\n    }\n\n    function generateId(string memory userDid, string memory credentialId) public pure returns (bytes32) {\n        bytes32 id = keccak256(\n            abi.encodePacked(userDid, credentialId)\n        );\n\n        return id;\n    }\n\n    function toString(address account) internal pure returns (string memory) {\n        return toString(abi.encodePacked(account));\n    }\n\n    function toString(uint256 value) internal pure returns (string memory) {\n        return toString(abi.encodePacked(value));\n    }\n\n    function toString(bytes memory data) internal pure returns (string memory) {\n        bytes memory alphabet = \"0123456789abcdef\";\n\n        bytes memory str = new bytes(2 + data.length * 2);\n        str[0] = \"0\";\n        str[1] = \"x\";\n        for (uint i = 0; i < data.length; i++) {\n            str[2 + i * 2] = alphabet[uint(uint8(data[i] >> 4))];\n            str[3 + i * 2] = alphabet[uint(uint8(data[i] & 0x0f))];\n        }\n        return string(str);\n    }\n\n    function convertBytes32ToHex(bytes32 _value) internal pure returns (string memory) {\n        return Strings.toHexString(uint256(_value));\n    }\n\n    function recoverSigner(bytes32 _ethSignedMessageHash, bytes memory _signature)\n        internal\n        pure\n        returns (address)\n    {\n        (bytes32 r, bytes32 s, uint8 v) = splitSignature(_signature);\n\n        return ecrecover(_ethSignedMessageHash, v, r, s);\n    }\n\n    function splitSignature(bytes memory sig)\n        internal\n        pure\n        returns (\n            bytes32 r,\n            bytes32 s,\n            uint8 v\n        ) {\n        // Check the length of the signature, 65 is the standard length for r, s, v signature.\n        require(sig.length == 65, \"invalid signature length\");\n\n        assembly {\n            /*\n            First 32 bytes stores the length of the signature\n\n            add(sig, 32) = pointer of sig + 32\n            effectively, skips first 32 bytes of signature\n\n            mload(p) loads next 32 bytes starting at the memory address p into memory\n            */\n\n            // first 32 bytes, after the length prefix\n            r := mload(add(sig, 0x20))\n            // second 32 bytes\n            s := mload(add(sig, 0x40))\n            // final byte (first byte of the next 32 bytes)\n            v := byte(0, mload(add(sig, 0x60)))\n        }\n\n        // implicitly return (r, s, v)\n    }\n\n    function boolToString(bool _b) internal pure returns (string memory) {\n        return _b ? \"true\" : \"false\";\n    }\n\n}\n",
  "sourcePath": "/Volumes/redcap/study/blockchain/assignment/project/prototype/identity-management/contracts/VerifiableCredential.sol",
  "compiler": {
    "name": "solc",
    "version": "0.8.0+commit.c7dfd78e.Emscripten.clang"
  },
  "schemaVersion": "3.4.16",
  "updatedAt": "2023-10-29T03:13:19.291Z",
  "networkType": "ethereum",
  "devdoc": {
    "kind": "dev",
    "methods": {},
    "version": 1
  },
  "userdoc": {
    "kind": "user",
    "methods": {},
    "version": 1
  }
}